:020000040800F2
:100000000000042075A600083D2300083F230008D7
:100010004123000843230008452300080000000096
:10002000000000000000000000000000472300085E
:1000300049230008000000004B2300084D2300085E
:10004000C5A60008C5A60008C5A60008C5A60008E4
:10005000C5A60008C5A60008C5A60008C5A60008D4
:10006000C5A60008C5A60008C5A60008C5A60008C4
:10007000C5A60008C5A60008C5A60008C5A60008B4
:10008000C5A60008C5A6000851230008C5A600089B
:10009000C5A60008C5A60008C5A60008C5A6000894
:1000A000C5A6000875230008C5A60008C5A6000857
:1000B000C5A60008C5A60008C5A60008C5A6000874
:1000C000C5A60008C5A60008C5A60008C5A6000864
:1000D000C5A60008C5A60008C5A60008C5A6000854
:1000E000C5A60008C5A60008C5A60008C5A6000844
:1000F000C5A60008C5A60008C5A60008C5A6000834
:10010000C5A60008C5A6000885230008C5A60008E6
:10011000C5A60008C5A60008C5A60008C5A6000813
:10012000C5A60008C5A60008C5A60008C5A6000803
:10013000C5A600080000000000000000000000004C
:1001400000000000000000000000000095230008EF
:10015000C5A60008C5A60008C5A60008C5A60008D3
:10016000C5A60008C5A60008C5A60008C5A60008C3
:10017000C5A60008A523000800000000000000003C
:10018000C5A60008C5A60008C5A60008C5A60008A3
:10019000C5A60008C5A6000800000000C5A6000806
:1001A000000000000000000000000000C5A60008DC
:1001B000C5A60008C5A60008000000000000000059
:1001C000000000000000000000000000000000002F
:1001D000000000000000000000000000C5A60008AC
:1001E00010B5054C237833B9044B13B10448AFF371
:1001F00000800123237010BDC8080020000000000B
:1002000048FE000808B5034B1BB103490348AFF390
:10021000008008BD00000000CC08002048FE000857
:10022000034613F8012B002AFBD1181A0138704736
:1002300001F0FF01102A2BDB10F0070F08D010F897
:10024000013B013A8B422DD010F0070F42B3F6D19B
:10025000F0B441EA012141EA014122F007047FF0B4
:1002600000070023F0E80256083C85EA010586EA0B
:10027000010685FA47F5A3FA87F586FA47F6A5FA47
:1002800087F68EB9EED1F0BC01F0FF0102F0070253
:1002900032B110F8013B013A83EA010313B1F8D1FE
:1002A0000020704701387047002D06BF35460338DF
:1002B000073815F0010F07D1013015F4807F02BF18
:1002C000013015F4C03F0130F0BC0138704700BF69
:1002D00081F0004102E000BF83F0004330B54FEAF7
:1002E00041044FEA430594EA050F08BF90EA020F64
:1002F0001FBF54EA000C55EA020C7FEA645C7FEAF7
:10030000655C00F0E2804FEA5454D4EB5555B8BF19
:100310006D420CDD2C4480EA020281EA030382EA8A
:10032000000083EA010180EA020281EA0303362D1C
:1003300088BF30BD11F0004F4FEA01314FF4801CEF
:100340004CEA113102D0404261EB410113F0004F01
:100350004FEA03334CEA133302D0524263EB4303B8
:1003600094EA050F00F0A780A4F10104D5F1200E56
:100370000DDB02FA0EFC22FA05F2801841F10001B1
:1003800003FA0EF2801843FA05F359410EE0A5F185
:1003900020050EF1200E012A03FA0EFC28BF4CF0B6
:1003A000020C43FA05F3C01851EBE37101F000456C
:1003B00007D54FF0000EDCF1000C7EEB00006EEB79
:1003C0000101B1F5801F1BD3B1F5001F0CD3490803
:1003D0005FEA30004FEA3C0C04F101044FEA44525A
:1003E00012F5800F80F09A80BCF1004F08BF5FEAE1
:1003F000500C50F1000041EB045141EA050130BDC1
:100400005FEA4C0C404141EB0101013C28BFB1F5D2
:10041000801FE9D291F0000F04BF01460020B1FA1D
:1004200081F308BF2033A3F10B03B3F120020CDAF0
:100430000C3208DD02F1140CC2F10C0201FA0CF0CE
:1004400021FA02F10CE002F11402D8BFC2F1200C33
:1004500001FA02F120FA0CFCDCBF41EA0C019040E9
:10046000E41AA2BF01EB0451294330BD6FEA040432
:100470001F3C1CDA0C340EDC04F11404C4F120021D
:1004800020FA04F001FA02F340EA030021FA04F32F
:1004900045EA030130BDC4F10C04C4F1200220FA86
:1004A00002F001FA04F340EA0300294630BD21FAC4
:1004B00004F0294630BD94F0000F83F4801306BF8A
:1004C00081F480110134013D4EE77FEA645C18BF7E
:1004D0007FEA655C29D094EA050F08BF90EA020F15
:1004E00005D054EA000C04BF1946104630BD91EA0D
:1004F000030F1EBF0021002030BD5FEA545C05D110
:100500004000494128BF41F0004130BD14F580044E
:100510003CBF01F5801130BD01F0004545F0FE41C2
:1005200041F470014FF0000030BD7FEA645C1ABFF7
:10053000194610467FEA655C1CBF0B46024650EA2E
:10054000013406BF52EA033591EA030F41F400215A
:1005500030BD00BF90F0000F04BF0021704730B5E0
:100560004FF4806404F132044FF000054FF00001B5
:1005700050E700BF90F0000F04BF0021704730B576
:100580004FF4806404F1320410F0004548BF40424B
:100590004FF000013EE700BF42004FEAE2014FEAA0
:1005A00031014FEA02701FBF12F07F4393F07F4F7B
:1005B00081F06051704732F07F4208BF704793F07E
:1005C0007F4F04BF41F40021704730B54FF4607491
:1005D00001F0004521F000411CE700BF50EA010294
:1005E00008BF704730B54FF000050AE050EA01023D
:1005F00008BF704730B511F0004502D5404261EBAD
:1006000041014FF4806404F132045FEA915C3FF4ED
:10061000D8AE4FF003025FEADC0C18BF03325FEA8A
:10062000DC0C18BF033202EBDC02C2F1200300FA3B
:1006300003FC20FA02F001FA03FE40EA0E0021FA60
:1006400002F11444BDE600BF70B54FF0FF0C4CF44E
:10065000E06C1CEA11541DBF1CEA135594EA0C0F00
:1006600095EA0C0F00F0DEF82C4481EA030621EA3B
:100670004C5123EA4C5350EA013518BF52EA033576
:1006800041F4801143F4801338D0A0FB02CE4FF028
:100690000005E1FB02E506F00042E0FB03E54FF058
:1006A0000006E1FB03569CF0000F18BF4EF0010E50
:1006B000A4F1FF04B6F5007F64F5407404D25FEA4C
:1006C0004E0E6D4146EB060642EAC62141EA5551FF
:1006D0004FEAC52040EA5E504FEACE2EB4F1FD0C41
:1006E00088BFBCF5E06F1ED8BEF1004F08BF5FEABF
:1006F000500E50F1000041EB045170BD06F0004671
:1007000046EA010140EA020081EA0301B4EB5C041D
:10071000C2BFD4EB0C0541EA045170BD41F4801115
:100720004FF0000E013C00F3AB8014F1360FDEBF3A
:10073000002001F0004170BDC4F10004203C35DA16
:100740000C341BDC04F11404C4F1200500FA05F399
:1007500020FA04F001FA05F240EA020001F000423A
:1007600021F0004110EBD37021FA04F642EB0601B0
:100770005EEA430E08BF20EAD37070BDC4F10C04DA
:10078000C4F1200500FA04F320FA05F001FA04F29E
:1007900040EA020001F0004110EBD37041F100018A
:1007A0005EEA430E08BF20EAD37070BDC4F1200595
:1007B00000FA05F24EEA020E20FA04F301FA05F2FD
:1007C00043EA020321FA04F001F0004121FA04F2A5
:1007D00020EA020000EBD3705EEA430E08BF20EA75
:1007E000D37070BD94F0000F0FD101F000464000AF
:1007F00041EB010111F4801F08BF013CF7D041EA31
:10080000060195F0000F18BF704703F00046520034
:1008100043EB030313F4801F08BF013DF7D043EA05
:100820000603704794EA0C0F0CEA135518BF95EABB
:100830000C0F0CD050EA410618BF52EA4306D1D142
:1008400081EA030101F000414FF0000070BD50EA61
:10085000410606BF1046194652EA430619D094EAEB
:100860000C0F02D150EA013613D195EA0C0F05D1D5
:1008700052EA03361CBF104619460AD181EA030129
:1008800001F0004141F0FE4141F470014FF00000E1
:1008900070BD41F0FE4141F4780170BD70B54FF07C
:1008A000FF0C4CF4E06C1CEA11541DBF1CEA1355FC
:1008B00094EA0C0F95EA0C0F00F0A7F8A4EB0504DE
:1008C00081EA030E52EA03354FEA013100F08880D5
:1008D0004FEA03334FF0805545EA131343EA12639E
:1008E0004FEA022245EA111545EA10654FEA002653
:1008F0000EF000419D4208BF964244F1FD0404F50C
:10090000407402D25B084FEA3202B61A65EB030567
:100910005B084FEA32024FF480104FF4002CB6EB24
:10092000020E75EB030E22BFB61A754640EA0C00A4
:100930005B084FEA3202B6EB020E75EB030E22BFE4
:10094000B61A754640EA5C005B084FEA3202B6EB25
:10095000020E75EB030E22BFB61A754640EA9C00E4
:100960005B084FEA3202B6EB020E75EB030E22BFB4
:10097000B61A754640EADC0055EA060E18D04FEA72
:10098000051545EA16754FEA06164FEAC30343EA12
:1009900052734FEAC2025FEA1C1CC0D111F4801FDF
:1009A0000BD141EA00014FF000004FF0004CB6E7D8
:1009B00011F4801F04BF01430020B4F1FD0C88BF77
:1009C000BCF5E06F3FF6AFAEB5EB030C04BFB6EB82
:1009D000020C5FEA500C50F1000041EB045170BD75
:1009E0000EF0004E4EEA113114EB5C04C2BFD4EBA2
:1009F0000C0541EA045170BD41F480114FF0000E26
:100A0000013C90E645EA060E8DE60CEA135594EAA1
:100A10000C0F08BF95EA0C0F3FF43BAF94EA0C0FA4
:100A20000AD150EA01347FF434AF95EA0C0F7FF419
:100A300025AF104619462CE795EA0C0F06D152EA6D
:100A400003353FF4FDAE1046194622E750EA410651
:100A500018BF52EA43067FF4C5AE50EA41047FF462
:100A60000DAF52EA43057FF4EBAE12E74FF0FF3CC7
:100A700006E000BF4FF0010C02E000BF4FF0010C98
:100A80004DF804CD4FEA410C7FEA6C5C4FEA430C11
:100A900018BF7FEA6C5C1BD001B050EA410C0CBF60
:100AA00052EA430C91EA030F02BF90EA020F0020C2
:100AB000704710F1000F91EA030F58BF994208BF29
:100AC00090422CBFD8176FEAE37040F001007047E6
:100AD0004FEA410C7FEA6C5C02D150EA013C07D13D
:100AE0004FEA430C7FEA6C5CD6D152EA033CD3D088
:100AF0005DF8040B704700BF8446104662468C4682
:100B00001946634600E000BF01B5FFF7B7FF0028B4
:100B100048BF10F1000F01BD4DF808EDFFF7F4FFDD
:100B20000CBF012000205DF808FB00BF4DF808ED68
:100B3000FFF7EAFF34BF012000205DF808FB00BF8B
:100B40004DF808EDFFF7E0FF94BF012000205DF8AD
:100B500008FB00BF4DF808EDFFF7CEFF94BF012062
:100B600000205DF808FB00BF4DF808EDFFF7C4FF5B
:100B700034BF012000205DF808FB00BF4FEA410CA4
:100B80007FEA6C5C02D150EA013C0AD14FEA430C87
:100B90007FEA6C5C02D152EA033C02D14FF00000C4
:100BA00070474FF0010070474FEA410212F5001202
:100BB00015D211D56FF47873B3EB625212D94FEAA4
:100BC000C12343F0004343EA505311F0004F23FA8E
:100BD00002F018BF404270474FF00000704750EAE3
:100BE000013005D111F0004008BF6FF000407047A0
:100BF0004FF00000704700BF4A0011D212F50012FA
:100C000011D20DD56FF47873B3EB62520ED44FEA64
:100C1000C12343F0004343EA505323FA02F07047E4
:100C20004FF00000704750EA013002D14FF0FF3022
:100C300070474FF0000070474FEA4102B2F1E043C5
:100C400024BFB3F5001CDCF1FE5C0DD901F0004CB3
:100C50004FEAC0024CEA5070B2F1004F40EB830003
:100C600008BF20F00100704711F0804F21D113F12F
:100C70003872BCBF01F00040704741F480114FEA68
:100C80005252C2F11802C2F1200C10FA0CF320FAF1
:100C900002F018BF40F001004FEAC1234FEAD3230E
:100CA00003FA0CFC40EA0C0023FA02F34FEA430378
:100CB000CCE77FEA625307D150EA01331EBF4FF001
:100CC000FE4040F44000704701F0004040F0FE401C
:100CD00040F40000704700BF53B94AB9002908BF6B
:100CE00000281CBF4FF0FF314FF0FF3000F06AB911
:100CF000ADF1080C6DE904CE00F006F8DDF804E073
:100D0000DDE9022304B070472DE9F047089D0C4649
:100D1000002B4ED194468C458646B2FA82F262D9B7
:100D20004AB1C2F12003914020FA03F30CFA02FC0D
:100D3000194300FA02FE4FEA1C471FFA8CF6B1FB7A
:100D4000F7F44FEA1E4307FB141143EA014304FB87
:100D500006F199420AD91CEB030304F1FF3080F03D
:100D60001281994240F20F81023C6344591A1FFAE2
:100D70008EF3B1FBF7F007FB101143EA014300FBD0
:100D800006F69E420AD91CEB030300F1FF3180F006
:100D9000FC809E4240F2F980634402389B1B40EA8B
:100DA000044000211DB1D3400022C5E90032BDE856
:100DB000F0878B4205D90DB1C5E900010021084635
:100DC000F5E7B3FA83F1002946D1A34202D390425A
:100DD000C0F0F080861A64EB03030120002DE6D0FA
:100DE000C5E90063E3E7002A40F09080A1EB0C0422
:100DF0004FEA1C481FFA8CF70121B4FBF8F64FEAC2
:100E00001E4308FB164443EA044307FB06F09842DE
:100E100008D91CEB030306F1FF3402D2984200F21A
:100E2000CD8026461C1A1FFA8EF3B4FBF8F008FB9F
:100E3000104443EA044300FB07F79F4208D91CEB28
:100E4000030300F1FF3402D29F4200F2B08020463B
:100E5000DB1B40EA0640A5E7C1F120068B4022FAE1
:100E600006F71F4320FA06FC04FA01F343EA0C03D9
:100E7000F44000FA01F8380C4FEA1349B4FBF0FED5
:100E80001FFA87FC00FB1E4449EA04440EFB0CF9E0
:100E9000A14502FA01F20AD93C190EF1FF3A80F09D
:100EA0008480A14540F28180AEF1020E3C44A4EB67
:100EB00009041FFA83F9B4FBF0F300FB134449EA79
:100EC000044403FB0CFCA44507D93C1903F1FF3093
:100ED00067D2A44565D9023B3C4443EA0E40A0FBDF
:100EE0000293A4EB0C049C42CE469C4651D34ED0B8
:100EF00055B1B8EB0E0364EB0C0404FA06F6CB40D4
:100F00001E43CC40C5E90064002150E7C2F1200334
:100F100020FA03F10CFA02FC24FA03F394400C4388
:100F20004FEA1C4800FA02FE1FFA8CF7B3FBF8F0F8
:100F300008FB1031230C43EA014300FB07F19942FF
:100F400008D91CEB030300F1FF362CD299422AD9B1
:100F5000023863445B1AA4B2B3FBF8F108FB113307
:100F600044EA034401FB07F3A34208D91CEB040441
:100F700001F1FF3613D2A34211D902396444E41AB5
:100F800041EA004139E70446F0E6084606E7C8456D
:100F9000AED2B9EB020E63EB070C0138A8E731467D
:100FA000EDE7034699E73046D4E7D6467FE763444A
:100FB00002384DE70646234608460FE7023E6344E3
:100FC00030E700BF704700BF2DE9F04F8FB000241D
:100FD00009940A940B940C940D948D4B1A6B42F067
:100FE00010021A631A6B02F010020092009A1A6B38
:100FF00042F002021A631A6B02F002020192019A95
:101000001A6B42F040021A631A6B02F0400202921D
:10101000029A1A6B42F008021A631A6B02F0080275
:101020000392039A1A6B42F004021A631A6B02F0DD
:1010300004020492049A1A6B42F001021A631A6BBA
:1010400002F001020592059A1A6B42F480721A634B
:101050001A6B02F480720692069A1A6B42F08002B2
:101060001A631A6B02F080020792079A1A6B42F019
:1010700020021A631B6B03F020030893089B654E44
:1010800022461821304604F0D9FEDFF89CB12246F2
:101090004FF4E241584604F0D1FE224648215E4812
:1010A00004F0CCFEDFF8849122464FF402614846FA
:1010B00004F0C4FEDFF878A1224640F20C4150460D
:1010C00004F0BCFE554F01224FF40041384604F0B5
:1010D000B5FE22464FF49061514804F0AFFE22461F
:1010E00041F28C21384604F0A9FEDFF848812246FF
:1010F00041F20201404604F0A1FE182309930125A4
:101100000A950B940C9409A9304604F0A3FD4FF402
:10111000E24309930A950B940C9409A9584604F0EC
:1011200099FD4FF4004309934FF488160A960B94E7
:1011300009A9584604F08EFD482309930A950B949B
:101140000C9409A9344804F085FD4FF40263099317
:101150000A950B940C9409A9484604F07BFD40F2D3
:101160000C4309930A950B940C9409A9504604F07A
:1011700071FD4FF4007309930A960B9409A9504628
:1011800004F068FD49F28C2309930A950B940C94A2
:1011900009A9384604F05EFD4FF4906309930A955F
:1011A0000B940C9409A91E4804F054FD4FF480736D
:1011B00009930A960B9409A9484604F04BFD4FF495
:1011C000806309930A940B9409A9384604F042FD00
:1011D00041F2020309930A950B940C9409A9404625
:1011E00004F038FD4FF4305309930A960B9409A983
:1011F000404604F02FFD4FF4006309930A940B94CA
:1012000009A9084804F026FD0FB0BDE8F08F00BF23
:101210000038024000100240000C0240001C024056
:101220000000024000140240001802400008024082
:10123000002002400004024008B50268034B9A42B5
:1012400000D008BD04F0B4FEFBE700BF0000014081
:1012500072B6FEE700B585B00023009301930293B8
:1012600003932048204A02604FF48032426083603A
:1012700001220261826180F82030C3621B498162D1
:10128000C3600321C16180F83030426105F04CFB3E
:10129000F8B90623009301230193072302936946BB
:1012A000104805F029FDB0B90423009302230193EF
:1012B00069460C4805F020FD78B90E2300930323FE
:1012C00001936946074805F017FD40B905B05DF880
:1012D00004FBFFF7BDFFFFF7BBFFFFF7B9FFFFF709
:1012E000B7FF00BF50110020002001400100000F97
:1012F00000B585B000230093019302930393144833
:10130000144A02604FF4803242608360036183615B
:1013100080F82030C362104A8262C3600122C26139
:1013200080F83030426105F0FFFA68B90423009379
:1013300001230193002302936946054805F0DCFC74
:1013400020B905B05DF804FBFFF782FFFFF780FFCF
:1013500008110020002101400100000F00B585B0F8
:10136000002300930193029303931448144A0260EC
:101370004FF48032426083600361836180F82030E3
:10138000C362104A8262C3600122C26180F83030B9
:10139000426105F0C9FA68B908230093012301935B
:1013A000002302936946054805F0A6FC20B905B064
:1013B0005DF804FBFFF74CFFFFF74AFFC010002069
:1013C000002201400100000F10B588B000220192F8
:1013D0000292039204920592069207922B484FF0D4
:1013E0002043036003F5827343608260C26004237C
:1013F0000361102141618261C26102624FF4805336
:1014000043628262C262026342638263C2630264B5
:101410000F2301930293FF24039404930591112356
:10142000069301A905F0FAFD00282AD118484FF0CB
:101430002043036003F5827343600223836000222C
:10144000C2600261102141618261C26102624FF497
:10145000805343628262C262026342638263C263F8
:1014600002640F2301930293FF24039404930591D4
:1014700011230693079201A905F0D0FD18B908B011
:1014800010BDFFF7E5FEFFF7E3FE00BF38090020BF
:10149000EC08002008B51148114B0360114B436064
:1014A000002383600122C260036143618361C361E1
:1014B000036204F051FF50B90021084805F040F9DB
:1014C00038B90021054805F069F920B908BDFFF7D2
:1014D000BFFEFFF7BDFEFFF7BBFE00BF6C10002094
:1014E000005400400D03006008B51148114B036023
:1014F000114B4360002383600122C260036143619A
:101500008361C361036204F027FF50B900210848DA
:1015100005F016F938B90021054805F03FF920B962
:1015200008BDFFF795FEFFF793FEFFF791FE00BFA2
:1015300018100020005800400D03006008B5114845
:10154000114B0360114B4360002383600122C26092
:10155000036143618361C361036204F0FDFE50B91E
:101560000021084805F0ECF838B90021054805F0DD
:1015700015F920B908BDFFF76BFEFFF769FEFFF70D
:1015800067FE00BFC40F0020005C00400D03006038
:1015900008B50B480B4B03600123436010238360A5
:1015A000C3601A2303614FF44073436100238361D6
:1015B000C361036205F08AFD00B908BDFFF748FE6C
:1015C000780F0020001000A008B52348234B0360CB
:1015D000002303634360402242638363C3638360E9
:1015E0000361436183611E4AC261C36043628362D7
:1015F000C36208220264012242648364C3640365F7
:1016000043658365C265036605F0DAFD00BB1548D6
:10161000154B0360002303630322426040224263B0
:101620008363C3630122826003618361C360436299
:101630008362C3620821016442648364C3640365F6
:1016400043658365C265036605F0BAFD10B908BD40
:10165000FFF7FEFDFFF7FCFDF40E0020045C0140E7
:1016600000EE0200700E0020245C014008B50F4817
:101670000F4B03604FF482734360002383604FF489
:101680004072C260036143614FF4007282610822BC
:10169000C2610362436283620721C16203634263E2
:1016A00005F098FE00B908BDFFF7D2FD0C0E002032
:1016B0000030014008B50F480F4B03604FF48273B0
:1016C0004360002383604FF44072C2600361436152
:1016D0004FF4802282610822C26103624362836206
:1016E0000721C1620363426305F074FE00B908BDBF
:1016F000FFF7AEFDA80D00200038004000B58BB00C
:101700000023079308930993009301930293039393
:1017100004930593069316484FF08042026043609D
:1017200083604FF0FF32C2600361836106F0AAF963
:10173000C0B900230793099307A90D4806F034FBAD
:1017400090B96023009300220192029204926946AC
:10175000074806F0FFF948B9054801F0ADF90BB0AC
:101760005DF804FBFFF774FDFFF772FDFFF770FDF6
:101770005C0D002000B58BB00023079308930993FC
:1017800000930193029303930493059306931648E1
:10179000164A0260436083604FF6FF72C2600361C5
:1017A000836106F06FF9C8B900230793099307A96D
:1017B0000D4806F0F9FA98B96023009300230193CD
:1017C0000293049308226946074806F0C3F948B912
:1017D000054801F071F90BB05DF804FBFFF738FD27
:1017E000FFF736FDFFF734FD100D00200004004028
:1017F00000B589B0002304930593069307930193E2
:10180000029303931248134A026043608360124AB2
:10181000C2600361836106F005F998B94FF4805303
:10182000049304A90A4806F03FFA68B920230193FB
:101830000023039301A9064806F0B6FA30B909B0AF
:101840005DF804FBFFF704FDFFF702FDFFF700FD65
:10185000C40C0020000C0040C04B030000B589B050
:101860000023019302930393049305930693079334
:101870001548164A0260436083604FF6FF72C260EB
:101880000361836106F0FEF8B8B96023019300227A
:1018900002920392059201A90B4806F05BF970B918
:1018A00004220DEB0201084806F054F948B9064835
:1018B00001F002F909B05DF804FBFFF7C9FCFFF77E
:1018C000C7FCFFF7C5FC00BF780C002000400140BA
:1018D00000B589B000230193029303930493059309
:1018E000069307931048114A0260436083604FF6E5
:1018F000FF72C2600361836106F0C4F880B960239F
:101900000193002202920392059201A9064806F073
:1019100021F938B9044801F0CFF809B05DF804FBAB
:10192000FFF796FCFFF794FC2C0C002000180040F9
:1019300008B50B480B4B03604FF4E13343600023C1
:101940008360C36003610C2242618361C3610362EF
:10195000436206F08CFD00B908BDFFF779FC00BFBB
:10196000A40B0020004C004008B50B480B4B036053
:101970004FF4E133436000238360C36003610C22B2
:1019800042618361C3610362436206F070FD00B986
:1019900008BDFFF75DFC00BF1C0B0020005000409D
:1019A00008B50C480C4B03604FF4E133436000234F
:1019B0008360C36003610C2242614FF44072826114
:1019C000C3610362436206F052FD00B908BDFFF730
:1019D0003FFC00BF940A00200078004008B50B4887
:1019E0000B4B03604FF4E133436000238360C3601B
:1019F00003610C2242618361C3610362436206F0AA
:101A000036FD00B908BDFFF723FC00BF0C0A00201B
:101A10000044004008B50B480B4B03604FF4E13322
:101A2000436000238360C36003610C2242618361D1
:101A3000C3610362436206F01AFD00B908BDFFF7F7
:101A400007FC00BF840900200014014000B595B0D8
:101A50003022002108A809F0B2F90023039304936F
:101A600005930693079304F0EFF9234B1A6C42F0A9
:101A700080521A641B6C03F080530193019B1F4B2F
:101A80001A6842F440421A601B6803F44043029310
:101A9000029B012308934FF48033099302230E9392
:101AA0004FF480020F92192210924FF4D8721192C3
:101AB00012930923139308A803F01EFAB0B904F097
:101AC000CBF9A8B90F2303930223049300230593B2
:101AD0004FF4A05306934FF480530793072103A8B4
:101AE00003F078FC30B915B05DF804FBFFF7B0FBEC
:101AF000FFF7AEFBFFF7ACFB003802400070004080
:101B000000B5A1B080220021684609F058F94FF4D1
:101B100040130093C02304930223059301230893E9
:101B2000684603F051FD10B921B05DF804FBFFF7E2
:101B30008FFB000070B5A2B004F02EFAFFF786FF0D
:101B4000FFF7DEFFFFF740FAFFF784FBFFF7D0FB5C
:101B5000FFF704FCFFF738FCFFF79CFCFFF7C4FC21
:101B6000FFF7ECFCFFF714FDFFF72EFDFFF77EFDFE
:101B7000FFF7A0FDFFF7C2FDFFF7FCFDFFF738FE02
:101B8000FFF76CFEFFF7A4FEFFF7D2FEFFF7ECFEB7
:101B9000FFF706FFFFF722FFFFF73CFF01F000FA17
:101BA00000F08EF8322000F0DFF82B4800F062FBE6
:101BB0002A4804F0E5FE4AE00134022C0EDC6421E0
:101BC000264804F097FF0028F6D1244804F0F3FFDC
:101BD00022AB03EB440323F8080CEDE71F4804F0A5
:101BE00069FFB0EE080A032332221DA920A800F0E5
:101BF0005FFB1D9C1E9E1A4DDFED1A1A01EE104A66
:101C0000DFED190A00EE106A284600F0C5FA2846F2
:101C100000F008FB2046FEF7BFFC04460D460022FC
:101C20000023CDE902233046FEF7B6FCCDE90001E2
:101C300022462B460D4904A809F05EF804A8FEF7D9
:101C4000EFFA0A2382B204A9094806F079FB034897
:101C500004F096FE0024B0E70000002050110020A0
:101C60000C010020000020420000000060FE00087F
:101C7000840900202DE9F04182B002AF04460D46F0
:101C800011463A8B02F1010802F10800C0086E46C5
:101C9000A6EBC000854602AE8DF8081019460DF17E
:101CA000090009F025F94FF0FF3300931FFA88F37C
:101CB00032466900204604F0B3FBBD46BDE8F08122
:101CC00000B585B010238DF80F30012300930DF17E
:101CD0000F03002240211348FFF7CCFF18B100206A
:101CE00005B05DF804FBA0238DF80F3001230093AD
:101CF0000DF10F03002240210A48FFF7BBFF08B196
:101D00000020EDE704238DF80E30012200920DF142
:101D10000E0340210348FFF7ADFF08B90120DFE7BC
:101D20000020DDE71810002070B584B006461D467F
:101D30008DF80F204C004FF0FF33009301230DF17D
:101D40000F02214604F06CFB10B1012004B070BDFD
:101D50004FF0FF330093BDF820302A46214630462D
:101D600004F030FCF2E70000A0F118039BB240F24F
:101D7000DE52934201D90020704700B585B0FEF7CE
:101D8000F9FB00223C4BFEF75FFC02460B4638A1F4
:101D9000D1E90001FEF782FD0022384BFEF79CFAE4
:101DA000FEF74AFFFEF7F8FB0022354BFEF796FAE6
:101DB00041EC100B0DF010FB51EC100BFEF71CFF6B
:101DC0008DF80F00012300930DF10E030022402136
:101DD0002C48FFF7A9FF18B1002005B05DF804FBFF
:101DE0009DF80E308DF80D3003F06F0343F01003B3
:101DF0008DF80E30012300930DF10E0300224021D7
:101E00002048FFF737FF08B10020E6E701230093E1
:101E10000DF10F03FE2240211A48FFF72BFF08B1F6
:101E20000020DAE7012300930DF10D030022402189
:101E30001448FFF71FFF08B10020CEE7012004F08F
:101E4000C9F89DF80D3063F07F038DF80D30012344
:101E500000930DF10D03002240210A48FFF70AFF0D
:101E600008B90120B9E70020B7E700BFAFF3008051
:101E70000000000084D777410000B0400000F03F30
:101E80000000E03F1810002000B587B08000063049
:101E90008DF810008DF81110090A8DF812108DF8C8
:101EA0001320120A8DF814204FF0FF3300930523FE
:101EB00004AA8021054804F0B3FA0390039B1BB9E0
:101EC000002007B05DF804FB0120FAE7181000209D
:101ED00010B504460846B42900D9B420FEF74AFBE1
:101EE0000EA3D3E90023FEF7AFFB00220A4BFEF757
:101EF000F5F907A3D3E90023FEF7A6FBFEF77CFE66
:101F000082B200212078FFF7BFFF10BDAFF3008041
:101F10009A999999999969400000E03F176CC11608
:101F20006CC1863F000000002DE9D0432DED0A8BE7
:101F30000446F0EE408AF0EE609AB0EE419A21EE4F
:101F400001AA20EEA08A7AEE087ADFED8BAA77EE5E
:101F5000EA7A17EE900AFEF71FFB41EC1B0BB0EE7E
:101F60004B0AF0EE6B0A0DF01DF99FED7B1B0DF097
:101F700017F951EC100B7AA3D3E90023FEF7ACF963
:101F800006460F4619EE900AFEF706FB41EC1C0BC5
:101F900019EE100AFEF700FBB0EE4C1AF0EE6C1AC8
:101FA00041EC100B0DF0FCF853EC102B3046394689
:101FB000FEF794F96CA3D3E90023FEF745FB024634
:101FC0000B4600206D49FEF787F9FEF735FE09EE56
:101FD000100AB0EE4B0AF0EE6B0A0DF0E3F8B0EE2B
:101FE00040BAF0EE60BA18EE900AFEF7D5FA41EC6E
:101FF000110BB0EE4B0AF0EE6B0A0DF0D1F853EC7A
:10200000102B5BA1D1E90001FEF766F906460F46E9
:1020100068EEA88A3AEE28AA38EE0A8A38EE6A8A6A
:10202000DFED577A78EE677A17EE900AFEF7B4FA8A
:102030008046894618EE100AFEF7AEFA41EC100B06
:102040000DF0B0F851EC100B00224E4BFEF7FCFAED
:1020500002460B4640464946FEF720FC41EC100B79
:102060000DF06AF853EC102B30463946FEF734F980
:102070003DA3D3E90023FEF7E7FAFEF7DDFD08EE06
:10208000900ADFED417A38EE678ADFED407A38EE6C
:10209000678ADFED3F7AC8EE277A17EE900AFEF7DF
:1020A0007BFA41EC100B0DF047F853EC102B30A1EC
:1020B000D1E90001FEF710F92BA3D3E90023FEF7C5
:1020C000C3FAFEF7B9FD05EE100AD4ED037AB8EEB7
:1020D000E77ADFED306A27EE267A37EE497AB0EEFE
:1020E000C77AD4ED047AF8EEE77A67EEA67AD4EDF3
:1020F000076AB8EEE66A26EE286A77EEC67AF0EE50
:10210000E77AD4ED086AF8EEE66A6369B42202FB66
:1021100003F305EE903A26EE855AF8EEE55A75EE91
:10212000C55A36EE256A66EE866AF0EEE66A2368E0
:10213000BDEEC77A83ED017A6368FDEEE77AC3ED01
:10214000017AA368FDEEE66AC3ED016ABDEC0A8B75
:10215000BDE8D083AFF3008000000020DB6945407C
:10216000182D4454FB21F93FF8C1631ADCA54C40FB
:10217000182D4454FB210940DC44E54400805640BE
:1021800000E0924400C06CC000A44E4600006146CE
:1021900000A0D7C60000344310B52DED048B0446D3
:1021A000B0EE609AF0EE418AB0EE618AD0ED0F7A1F
:1021B000DFED190A31EEA01A70EEE10A37EE800A5F
:1021C00000F064F884ED0F0A94ED100ADFED130AB5
:1021D00038EE201A70EEC80A30EE090A00F056F800
:1021E00084ED100A94ED110ADFED0D0A38EE201A85
:1021F00070EEC80A30EE280A00F048F8B0EE401A37
:1022000084ED110AD4ED100A94ED0F0A2046FFF771
:102210008BFEBDEC048B10BD00000000F64821438E
:10222000D94E2B4238B50546002405E055F8240068
:102230008188FFF74DFE0134022CF7DD38BD000028
:1022400010B504469FED080A80ED0F0ADFED070A7E
:10225000C0ED100A9FED061A80ED111AFFF764FE1B
:102260002046FFF7DFFF10BD00000000F6482143C5
:10227000D94E2B4238B50546002404E055F8240019
:10228000FFF7DEFF0134032CF8DD38BDB4EEE00AC1
:10229000F1EE10FA05D4B4EEC10AF1EE10FA03DC47
:1022A0007047B0EE600A7047B0EE410A7047000018
:1022B00030B5520802F2FF7440F2FF75AD1AADB2AC
:1022C0004FF0000C13E0A24220D9A2F2FF7207EEF9
:1022D000902AF8EEE77A67EE807A01EB8E0E9FED9A
:1022E000157A67EE877ACEED007A0CF1010C9C45E9
:1022F0001FDAE64630F81C20A242E4D8AA42E2D314
:1023000001EB8C0E0022CEF80020EEE7AA42ECD2C0
:10231000A2F2FF7207EE902AF8EEE77A60EE677A93
:1023200001EB8E0EDFED046A87EEA67A8EED007A61
:10233000DBE730BD0000003A00E0FFC4FEE7FEE747
:10234000FEE7FEE7FEE77047704770477047000002
:1023500008B5054804F035FC044804F032FC044894
:1023600004F02FFC08BD00BF501100200811002010
:10237000C010002008B5024805F006FA08BD00BFED
:10238000A011002008B5024805F0FEF908BD00BF05
:10239000C40C002008B5024801F024FF08BD00BFAE
:1023A000201F002008B5024801F01CFF08BD00BF37
:1023B000401B0020F0B587B00023019302930393E4
:1023C00004930593254B1B680BB107B0F0BD234B5D
:1023D00001221A60224B9A6B42F001029A639B6BB6
:1023E00003F001030093009B4FF6837301930226D1
:1023F0000296032504950C24059401A9194803F0BD
:1024000029FC4DF6B37301930296002703970495B8
:10241000059401A9144803F01DFC80230193029642
:1024200003970495059401A9104803F013FC40F2AA
:102430003F230193029603970495059401A90C4844
:1024400003F008FC4FF23D030193029603970495B5
:10245000059401A9074803F0FDFBB6E79C11002095
:102460000038024000100240000C0240000402400C
:10247000001802400014024082B00A4B1A6C42F06D
:1024800080521A641A6C02F080520092009A5A6CC0
:1024900042F480425A645B6C03F480430193019BD5
:1024A00002B070470038024010B58EB00023099387
:1024B0000A930B930C930D9303684E4A934207D0F3
:1024C0004D4A93423AD04D4A93426DD00EB010BD62
:1024D0004B4B5A6C42F480725A645A6C02F480720C
:1024E0000192019A1A6B42F004021A631A6B02F00D
:1024F00004020292029A1A6B42F001021A631B6BE9
:1025000003F001030393039B1323099303240A9409
:1025100009A93C4803F09EFB502309930A94002428
:102520000B9409A9384803F095FB22462146122056
:1025300003F014FD122003F021FDC7E7304B5A6C65
:1025400042F400725A645A6C02F400720492049AC3
:102550001A6B42F004021A631A6B02F0040205922D
:10256000059A1A6B42F001021A631B6B03F0010318
:102570000693069B1323099303240A9409A921486F
:1025800003F068FB502309930A9400240B9409A9D3
:102590001D4803F05FFB22462146122003F0DEFCBB
:1025A000122003F0EBFC91E7154B5A6C42F4806269
:1025B0005A645A6C02F480620792079A1A6B42F0CE
:1025C00020021A631B6B03F020030893089B4FF44F
:1025D0008063099303230A9309A90C4803F03AFB8B
:1025E00000221146122003F0B9FC122003F0C6FCB1
:1025F0006CE700BF002001400021014000220140A3
:10260000003802400008024000000240001402406E
:102610002DE9F043ADB0044600212791289129917E
:102620002A912B91802207A808F0C9FB2368554AFC
:10263000934208D0544A934232D0544A93425BD0DA
:102640002DB0BDE8F0834FF48043079307A802F054
:10265000BBFF10BB4E4C236B43F002032363236B81
:1026600003F002030093009B4FF44073279312235F
:1026700028930123299303232A9304232B9327A927
:10268000444803F0E7FA236C43F400132364236CFB
:1026900003F400130193019BD2E7FEF7D9FDD9E7BC
:1026A0004FF40043079307A802F08EFF08BB384C95
:1026B000236B43F080032363236B03F080030293B7
:1026C000029B30232793122328930023299303236B
:1026D0002A9304232B9327A92F4803F0BBFA236CDA
:1026E00043F480032364236C03F480030393039B6C
:1026F000A6E7FEF7ADFDDAE74FF48033079307A8AE
:1027000002F062FF002839D1214C236B43F0010312
:102710002363236B03F001030493049B236B43F0B7
:1027200080032363236B03F080030593059B4FF421
:102730008079CDF89C904FF01208CDF8A080012749
:10274000299703262A9604252B9527A9134803F0D9
:1027500081FACDF89C90CDF8A08029972A962B95E8
:1027600027A90D4803F076FA236C43F40003236491
:10277000236C03F400030693069B61E7FEF768FDF4
:10278000C2E700BF0054004000580040005C004019
:102790000038024000040240001C024000000240D9
:1027A0002DE9F0438BB0002305930693079308931C
:1027B00009930268384B9A4202D00BB0BDE8F0830F
:1027C000364B9A6B42F002029A639A6B02F0020255
:1027D0000092009A1A6B42F010021A631A6B02F010
:1027E00010020192019A1A6B42F002021A631A6BEC
:1027F00002F002020292029A1A6B42F004021A6379
:102800001A6B02F004020392039A1A6B42F0080258
:102810001A631B6B03F008030493049B4FF0040935
:10282000CDF81490022506950324089409260996EC
:1028300005A91B4803F00EFA4023059306950027CF
:10284000079708940A230993DFF8608005A940469A
:1028500003F000FA4FF4C0630593069507970894B8
:10286000099605A90F4803F0F5F9CDF814900695DF
:1028700007970894099605A9404603F0EBF94FF431
:1028800000530593069507970894099605A90648ED
:1028900003F0E0F991E700BF001000A0003802400B
:1028A0000010024000080240000C024000040240F8
:1028B00070B58CB000230793089309930A930B9388
:1028C0000368374A934204D0364A934235D00CB05D
:1028D00070BD354B5A6C42F480525A645A6C02F403
:1028E00080520192019A1A6B42F002021A631A6B2B
:1028F00002F002020292029A1A6B42F001021A637B
:102900001B6B03F001030393039B30230793022601
:10291000089603250A9505240B9407A9234803F07C
:1029200099F9202307930896002309930A950B949D
:1029300007A91F4803F08EF9C9E71B4B1A6C42F434
:1029400080421A641A6C02F480420492049A1A6B50
:1029500042F480721A631A6B02F480720592059A2F
:102960001A6B42F004021A631B6B03F00403069314
:10297000069B03240794022608960A9405250B95C6
:1029800007A90C4803F066F90C2307930896002367
:1029900009930A940B9507A9074803F05BF996E79A
:1029A000003001400038004000380240000402407E
:1029B00000000240002002400008024084B003688A
:1029C000B3F1804F13D01B4A93421DD01A4A934251
:1029D00025D01A4A934215D1194B1A6C42F0400285
:1029E0001A641B6C03F040030393039B0AE003F596
:1029F0000E331A6C42F001021A641B6C03F00103DF
:102A00000093009B04B070470D4B1A6C42F0020219
:102A10001A641B6C03F002030193019BF2E7084B5D
:102A20005A6C42F480325A645B6C03F48033029334
:102A3000029BE7E70004004000400140001800400E
:102A40000038024000B589B0002303930493059336
:102A5000069307930268164B9A4202D009B05DF8BC
:102A600004FB03F50B331A6C42F008021A641A6C6B
:102A700002F008020192019A1A6B42F080021A6376
:102A80001B6B03F080030293029B4FF400630393DC
:102A900002230493079303A9064803F0DBF80022FE
:102AA0001146322003F05AFA322003F067FAD5E7D4
:102AB000000C0040001C024000B58BB000230593C1
:102AC00006930793089309930368B3F1804F0BD0E3
:102AD000304A93421FD0304A934230D02F4A93421B
:102AE00042D00BB05DF804FB03F50E331A6B42F0D5
:102AF00001021A631B6B03F001030193019B4FF466
:102B000000430593022306930123099305A9244852
:102B100003F0A0F8E5E7234B1A6B42F002021A63B8
:102B20001B6B03F002030293029B01230593022314
:102B30000693099305A91C4803F08CF8D1E7194BBB
:102B40001A6B42F010021A631B6B03F0100303931D
:102B5000039B60230593022306930323099305A98E
:102B6000124803F077F8BCE70E4B1A6B42F0800274
:102B70001A631B6B03F080030493049B40230593AB
:102B8000022306930923099305A9094803F062F873
:102B9000A7E700BF000400400040014000180040CB
:102BA00000000240003802400004024000100240D1
:102BB000001C0240F0B5B1B0044600212B912C91CD
:102BC0002D912E912F9180220BA808F0F8F8236800
:102BD000814A93420FD0814A934237D0804A934230
:102BE00075D0804A934200F09F807F4A934200F064
:102BF000C68031B0F0BD4FF400730B930BA802F008
:102C0000E3FC00BB794B1A6C42F400221A641A6C84
:102C100002F400220092009A1A6B42F001021A6339
:102C20001B6B03F001030193019B03232B930222EF
:102C30002C9200222D922E9308232F932BA96C48BF
:102C400003F008F8D5E7FEF703FBDBE74FF48063FA
:102C50000B930BA802F0B8FC002835D1634B1A6C1B
:102C600042F480121A641A6C02F480120292029AE0
:102C70001A6B42F004021A631A6B02F00402039208
:102C8000039A1A6B42F008021A631B6B03F00803E5
:102C90000493049B4FF480532B9302272C97002618
:102CA0002D9603252E9508242F942BA9514802F028
:102CB000D1FF04232B932C972D962E952F942BA97F
:102CC0004D4802F0C7FF94E7FEF7C2FAC6E74FF49B
:102CD00080530B930BA802F077FC10BB434B1A6C8C
:102CE00042F080421A641A6C02F080420592059A02
:102CF0001A6B42F020021A631B6B03F02003069349
:102D0000069B4FF470732B9302232C9300232D9377
:102D100003232E9308232F932BA9384802F09AFF00
:102D200067E7FEF795FAD9E780230B930BA802F02B
:102D30004BFC08BB2D4B1A6C42F400321A641A6C1F
:102D400002F400320792079A1A6B42F001021A63EA
:102D50001B6B03F001030893089B0C232B930223A6
:102D60002C9300232D9303232E9307232F932BA91A
:102D70001F4802F06FFF3CE7FEF76AFADAE74FF40C
:102D800000630B930BA802F01FFC08BB174B5A6C97
:102D900042F020025A645A6C02F020020992099A09
:102DA0001A6B42F004021A631B6B03F004030A93CC
:102DB0000A9BC0232B9302232C9300232D930323E0
:102DC0002E9308232F932BA90A4802F043FF10E704
:102DD000FEF73EFADAE700BF004C0040005000402A
:102DE00000780040004400400014014000380240D8
:102DF0000000024000080240000C024000140240A3
:102E000008B5FFF7D7FA08BD10B588B004460268C8
:102E1000224B9A4205D02268214B9A421FD008B01B
:102E200010BD204B1B684BB91F4A516C41F4000187
:102E30005164526C02F400020192019A0133194A62
:102E40001360F02303930223049300230593069356
:102E50000A23079303A9154802F0FCFEDBE7114B98
:102E60001B684BB9104A516C41F400015164526C1B
:102E700002F400020292029A01330A4A13604FF4EC
:102E800080630393022304930023059306930A238C
:102E9000079303A9064802F0DDFEC0E7045C014089
:102EA000245C0140981100200038024000200240BC
:102EB0000018024030B589B004461E4B5A6C42F0EF
:102EC00001025A645B6C03F001030193019B02A9A8
:102ED00003A802F05BFB02F049FB4300164AA2FB89
:102EE00003239B0C013B1548154A026040F2E73270
:102EF000C2604360002303618360836104F092FD3C
:102F0000054610B1284609B030BD0C4804F0F0FB6E
:102F100005460028F6D1192003F030F80F2C01D90E
:102F20000125EFE700222146192003F017F8054B91
:102F30001C60E7E70038024083DE1B43A01100203D
:102F400000000140BC01002004290CD0052902D05A
:102F5000022904D07047064B03221A707047044BB5
:102F600002221A707047024B01221A70F2E700BF6A
:102F7000EC11002004290CD0052902D0022904D02C
:102F80007047064B03221A707047044B02221A70D6
:102F90007047024B01221A70F2E700BFEC110020CB
:102FA00008B500221749184805F0F4FAC0B91749C6
:102FB000154805F00EFBB0B9134805F068FBA8B939
:102FC00001221349134805F0E5FA90B91249114856
:102FD00005F0FFFA80B90F4805F059FB78B908BD34
:102FE000FEF736F9E3E7FEF733F9E5E7FEF730F9E8
:102FF000E6E7FEF72DF9E9E7FEF72AF9EBE7FEF73A
:1030000027F9ECE7492F000898160020C40100209A
:10301000752F0008F0110020E401002070B5ACB05D
:10302000044600212791289129912A912B918022F1
:1030300007A807F0C4FE2368B3F1A04F04D04B4AA1
:1030400093424AD02CB070BD4FF40013079307A8E9
:1030500002F0BAFA00283DD1454C236B43F001033E
:103060002363236B03F001030093009B4FF4C053D1
:103070002793022328930025299503232A930A23C3
:103080002B933C4E27A9304602F0E4FD4FF4007329
:1030900027932895299527A9304602F0DBFD636B1D
:1030A00043F080036363636B03F080030193019B30
:1030B000636C43F480436364636C03F48043029362
:1030C000029B2A462946432002F048FF432002F093
:1030D00055FFB7E7FEF7BCF8BEE74FF400130793C0
:1030E00007A802F071FA00283CD1214C236B43F071
:1030F00002032363236B03F002030393039B4FF448
:1031000040432793022328930025299503232A93DC
:103110000C232B9327A9184802F09CFD636C43F005
:1031200000436364636C03F000430493049B236BCC
:1031300043F000532363236B03F000530593059B77
:10314000236B43F080432363236B03F08043069398
:10315000069B2A4629464D2002F000FF4D2002F032
:103160000DFF6FE7FEF774F8BFE700BF00000440F3
:1031700000380240000002400004024008B5D0F8C8
:10318000DC0305F091FA08BD08B5D0F8DC0305F0C2
:103190009CFA08BD08B5D0F8DC0305F0A0FA08BD1C
:1031A000704708B5D0F8DC0305F087FA08BD08B50C
:1031B000D0F8DC0305F085FA08BD000010B5044620
:1031C00090F89C34012B04D094F89C340BB300206D
:1031D00010BD2048C0F8DC43C4F8A0044FF0A04361
:1031E00003600C2343710323C37100238371022204
:1031F00042728372837300F04CF938B9154801F0BC
:10320000D3F80146204605F04CFADDE7FEF720F83A
:10321000F4E71148C0F8DC43C4F8A0040F4B036086
:10322000102343710023C37183710322427283729E
:10323000C37283730123037400F02BF938B9064875
:1032400001F0B2F80146204605F02BFABFE7FDF782
:10325000FFFFF4E7201F0020401B00200000044077
:1032600008B5D0F8A00401F099F808BD08B5D0F869
:10327000A00401F08CF808BD38B504460D4690F85E
:103280009C34012B07D094F89C3443B1C82002F041
:10329000A1FE002038BD084600F07CF8F3E7284680
:1032A00000F084F8F2E7D0F8A034C1EB011003EB92
:1032B0008000C07D38B1C1EB011103EB810383F8BD
:1032C0003C2000207047C1EB011103EB810383F820
:1032D0003D20F6E7D0F8A034C1EB011203EB8202E7
:1032E000D27D32B1C1EB011103EB810393F83C00B5
:1032F0007047C1EB011103EB810393F83D00704768
:10330000022805D8DFE800F005040200012070471C
:103310000220704708B5D0F8A00401F011F8FFF7BB
:10332000EFFF08BD08B5D0F8A00401F01EF8FFF7C4
:10333000E7FF08BD10B584B0D0F8A004BDF8204068
:1033400002949DF81C4001949DF81840009401F0EF
:103350003CF8FFF7D5FF04B010BD08B5D0F8A004C5
:1033600000F085F8FFF7CCFF08BD10B584B0D0F8A9
:10337000A0049DF824400394BDF820400294079CCB
:1033800001949DF81840009400F0CAF8FFF7B8FFC8
:1033900004B010BD08B5024600B101224FF480719F
:1033A000014802F04BFD08BD0018024008B530B9D5
:1033B00001224FF48051034802F040FD08BD002275
:1033C000F7E700BF001C0240F8B50668346A04F055
:1033D0000F07C4F34343C4F30A14022B00D0F8BD13
:1033E0000546002CFBD0C7EB071300EB8303D96A1B
:1033F0000029F4D0C7EB071300EB83039A6B224438
:103400005B6B9A4207D9C7EB071700EB87050423CC
:1034100085F84C30E3E72246304601F066F9C7EB09
:10342000071305EB8303DA6A2244DA629A6B2244BB
:103430009A6306EB4716D6F81025C2F3C9421B8DD6
:10344000A342CCD1002ACAD0D6F8003523F080435D
:1034500043F00043C6F80035C7EB071305EB8303C1
:1034600093F83C2082F0010283F83C20B7E790F803
:10347000D433012B0BD010B50446012380F8D4338C
:10348000006801F004FB002084F8D40310BD022082
:103490007047002842D030B583B00446056890F8E4
:1034A000D533BBB1032384F8D533B5F1A04F16D083
:1034B000206801F0B5F8237C8DF80030231D0ECB79
:1034C000206801F039F868B1022384F8D53301206F
:1034D00003B030BD80F8D433FFF7A0FDE2E700234E
:1034E000A371E5E70121206801F033F920B102233F
:1034F00084F8D5330120EBE7237C8DF80030231DC1
:103500000ECB206801F056F918B9012384F8D533A1
:10351000DEE7022384F8D5330120D9E70120704784
:1035200038B59DF81040BDF81850C1EB011C00EBF8
:103530008C0C8CF817208CF8263094B9C1EB011C48
:1035400000EB8C0C4FF0030E8CF82AE09DF81CE089
:103550008CF819E0032B00F2B180DFE803F00BA830
:103560004C7AC1EB011C00EB8C0C4FF0020E8CF876
:103570002AE0EFE7012C40F0A180F2B935B9C1EBA8
:10358000011300EB8303012283F83D20C1EB0113FB
:1035900000EB830393F83D303BB9C1EB011300EB23
:1035A0008303002283F82A2088E0C1EB011300EB9B
:1035B0008303022283F82A2080E0C1EB011300EB91
:1035C00083039B7E012B79D1C1EB011300EB8303B5
:1035D00093F83C303BB9C1EB011300EB83030022AD
:1035E00083F82A206AE0C1EB011300EB8303022277
:1035F00083F82A2062E0AAB9C1EB011300EB830330
:1036000093F83D3033B9C1EB011300EB830383F82A
:103610002A2053E0C1EB011300EB8303022283F85D
:103620002A204BE0C1EB011300EB830393F83C30FD
:103630003BB9C1EB011300EB8303002283F82A207E
:103640003CE0C1EB011300EB8303022283F82A2044
:1036500034E0AAB9C1EB011300EB830393F83D30CA
:1036600033B9C1EB011300EB830383F82A2025E073
:10367000C1EB011300EB8303022283F82A201DE033
:10368000C1EB011300EB830393F83C303BB9C1EB72
:10369000011300EB8303002283F82A200EE0C1EB24
:1036A000011300EB8303022283F82A2006E0C1EB1A
:1036B000011300EB8303002283F82A20C1EB0113DE
:1036C00000EB8303059ADA625D63002283F84C20E5
:1036D0009A63597583F84D20C1EB011189001031AF
:1036E000014482790431006801F062FA38BD30B5D6
:1036F00083B004460568D5F840340193D5F84034CA
:103700000093009B23F02E030093019B13F0020F04
:1037100007D0019B13F0010F25D1009B43F002035A
:103720000093019B13F0080F10D0009B43F0080397
:103730000093019B13F0040F2DD0637A022B15D058
:10374000E379012B22D02046FFF72BFD019B13F0DC
:10375000200F03D0009B43F020030093009BC5F88B
:10376000403403B030BDFFF70FFDD6E7019B03F4F3
:10377000C023B3F5802F04D00121206801F092F816
:10378000E1E70221206801F08DF8DCE74EF66022C7
:10379000C5F80424D7E72046FFF709FDD6E7000067
:1037A000F8B505460C460668304600F0C5FF10F037
:1037B000040F21D006EB44130422C3F80825C4EB00
:1037C000041305EB8303072283F84D202146286864
:1037D00001F05DF92146286800F0AEFF10F4007F8B
:1037E0006CD02146286801F052F906EB44164FF4DC
:1037F0000073C6F80835F8BD2146286800F09CFF24
:1038000010F4807F11D006EB44134FF48072C3F89C
:103810000825C4EB041305EB8303082283F84D202D
:103820002146286801F033F9D4E72146286800F0E2
:1038300083FF10F0080F10D006EB44130822C3F8E2
:103840000825C4EB041305EB8303062283F84D20FF
:103850002146286801F01BF9BCE72146286800F0E2
:103860006BFF10F4806F11D006EB44134FF48062AD
:10387000C3F80825C4EB041305EB8303092283F87E
:103880004D202146286801F002F9A3E72146286867
:1038900000F052FF10F0800F9CD006EB4413802202
:1038A000C3F80825C4EB041305EB8303072283F850
:1038B0004D202146286801F0EAF88BE72146286868
:1038C00000F03AFF10F0010F7FD006EB441606F52A
:1038D000A0672023BB60C4EB041305EB8303DB7EEE
:1038E000012B31D0AB794BB1C4EB041305EB83034F
:1038F0001A6B3969C1F31201521A9A63C4EB0413AB
:1039000005EB8303012283F84D2000215964BA603E
:1039100093F82630022B18BF8B4220D0012B18BF02
:10392000032B23D0AB79012B32D0C4EB041305EB6E
:10393000830393F83C30C4EB041405EB840483F058
:10394000010384F83C3056E7C4EB041305EB830312
:103950000022DA767B6823F480337B60C2E721465D
:10396000286801F094F81023BB60DBE7D6F8003537
:1039700043F00053C6F80035C4EB041305EB830392
:10398000012283F84C2021462846FFF709FCC9E7AD
:10399000C4EB041205EB8202936B128D1344013BBE
:1039A000B3FBF2F313F0010F3FF425AFC4EB0413A4
:1039B00005EB830393F83C30C4EB041405EB84045B
:1039C00083F0010384F83C3015E72146286800F0B5
:1039D000B3FE10F0200F1ED006EB44162023C6F8CD
:1039E0000835C4EB041305EB83039B7E012B7FF4A6
:1039F00002AFC4EB041305EB83030122DA76C4EBB8
:103A0000041305EB8303032283F84D202146286825
:103A100001F03DF8EFE62146286800F08DFE10F039
:103A2000020F00F0278106EB441606F5A062022380
:103A30009360C4EB041305EB830393F84D30012B23
:103A400016D0023B072B1DD801A151F823F000BF6F
:103A5000F7370008CD3B0008273C00082B3B000847
:103A60009B3A0008B13A0008593C0008B13A0008F6
:103A7000C4EB041305EB8303022283F84D200122DB
:103A800083F84C20C4EB041305EB830393F84C201C
:103A900021462846FFF784FBADE6C4EB041305EB93
:103AA0008303022283F84D20052283F84C20E9E7A6
:103AB000C4EB041305EB8303022183F84D10596C0A
:103AC0000131596402291AD9C4EB041305EB8303AD
:103AD000002159649B7E012B07D0C4EB041305EB36
:103AE0008303042283F84C20CCE73C2303FB0453DC
:103AF000D9761977536823F480335360EDE7C4EB2C
:103B0000041305EB8303022283F84C2093F826303C
:103B1000934218BF002BB5D1D6F8003523F080436F
:103B200043F00043C6F80035ACE7C4EB041305EBE3
:103B30008303022183F84D10DB7E012BA2D1C4EB5D
:103B4000041305EB830393F82630032B18D03C2392
:103B500003FB0453022283F84C20C4EB041305EB4F
:103B6000830393F82630022B18BF002B8AD1D6F896
:103B7000003523F0804343F00043C6F8003581E769
:103B80003C2101FB04518B6C01338B64022B16D951
:103B90000B4600219964D9765B6C022B04D83C2338
:103BA00003FB045301211977536823F480335360D6
:103BB0003C2303FB0453042283F84C20CDE73C2331
:103BC00003FB0453022283F84C20C6E7C4EB041322
:103BD00005EB8303022183F84D10DB7E012B7FF47C
:103BE00051AFC4EB041305EB830383F84C10516809
:103BF00041F480315160D16841F04001D160D16819
:103C000021F02001D16093F82630022B18BF002B41
:103C10007FF438AFD6F8003523F0804343F00043FB
:103C2000C6F800352EE7C4EB041305EB830302222C
:103C300083F84D2083F84C2093F82630934218BF28
:103C4000002B7FF41FAFD6F8003523F0804343F0FC
:103C50000043C6F8003515E7C4EB041305EB8303F6
:103C6000022283F84D205A6C01325A64042283F8F0
:103C70004C2007E72146286800F05EFD10F0400F59
:103C800018D006EB44134022C3F80825C4EB0413F4
:103C900005EB8303052283F84D209B7E2BB9C4EBF3
:103CA000041305EB830300225A642146286800F0C0
:103CB000EEFEA0E52146286800F03EFD10F0100F52
:103CC0003FF499ADC4EB041305EB830393F826305E
:103CD000032B28D0022B18BF002B17D1C4EB0413E1
:103CE00005EB830300225A64AB792BB13C2303FB21
:103CF0000453DB7E012B09D13C2303FB0453042234
:103D000083F84D202146286800F0C1FEC4EB04135F
:103D100005EB8303DB7E012B12D006EB441310224C
:103D2000C3F8082567E53C2303FB045300225A64CB
:103D3000042283F84D202146286800F0A8FEE5E71C
:103D4000C4EB041305EB83050023EB7606EB441369
:103D5000D3F8042522F48032C3F80425D3F80C25C7
:103D600042F02002C3F80C25D7E700BF70B5054626
:103D70000C460668304600F0DFFC10F0040F10D04F
:103D800006EB44160423C6F80835C4EB041305EB10
:103D90008303072283F84D202146286800F077FE30
:103DA00070BD2146286800F0C7FC10F0200F4AD0F3
:103DB00006EB44162023C6F80835C4EB041305EBC4
:103DC00083035B7E012B2DD0C4EB041305EB83032F
:103DD0009B7E012BE4D1C4EB041305EB8303DB7E54
:103DE000002BDDD1C4EB041305EB830393F82630DD
:103DF000012B05D0C4EB041305EB83030122DA7613
:103E00002601C4EB041305EB8303032283F84D2042
:103E10002146286800F03BFE361B05EB8606002392
:103E20007364BDE7C4EB041305EB830300225A76E9
:103E3000022283F84C20032283F84D202146286873
:103E400000F025FEC0E72146286800F075FC10F45C
:103E5000007F0AD006EB44164FF40073C6F808350D
:103E60002146286800F013FE9AE72146286800F0F2
:103E700063FC10F0010F3BD0C4EB041305EB83038C
:103E800000225A642146286800F056FC10F0400FCA
:103E90000AD0C4EB041305EB830301225A7606EB28
:103EA00044134022C3F80825C4EB041305EB830335
:103EB000DB7E6BB1C4EB041305EB83030022DA76DF
:103EC00006EB4413D3F8042522F48032C3F804250A
:103ED00006EB44160122C6F80825C4EB041305EBD3
:103EE000830383F84D202146286800F0D0FD57E772
:103EF0002146286800F020FC10F0400F1ED0C4EBD3
:103F0000041305EB8303052283F84D209B7E2BB918
:103F1000C4EB041305EB830301225A76C4EB0413AC
:103F200005EB830300225A642146286800F0AFFDA8
:103F300006EB44164023C6F8083531E721462868C9
:103F400000F0FAFB10F0080F10D006EB4413082223
:103F5000C3F80825C4EB041305EB8303062283F89A
:103F60004D202146286800F092FD19E72146286877
:103F700000F0E2FB10F0100F20D0C4EB041305EBAF
:103F8000830300225A64042283F84D205B7E5BB9D0
:103F9000C4EB041305EB83031B7E2BB9C4EB0413A2
:103FA00005EB830301225A762146286800F06FFD55
:103FB00006EB44131022C3F80825F1E621462868D1
:103FC00000F0BAFB10F0800F2ED0AB79A3B1C4EB98
:103FD000041205EB8202536C01335364022B16D892
:103FE0003C2303FB0453022283F84C2006EB4413CA
:103FF0008022C3F80825D3E63C2303FB04530722A1
:1040000083F84D202146286800F041FDEEE73C236F
:1040100003FB045300225A64042283F84C202146F7
:104020002846FFF7BDF8E1E72146286800F084FB49
:1040300010F4806F10D03C2303FB0453092283F853
:104040004D202146286800F022FD06EB44134FF472
:104050008062C3F80825A3E62146286800F06CFBBF
:1040600010F0020F3FF49CAE06EB441606F5A0627A
:10407000022393603C2303FB045393F84D30012B40
:1040800014D0033B062B3FF68BAE01A151F823F071
:104090002F4100084D410008774100088941000880
:1040A0009D410008A13D00089D4100083C2303FB01
:1040B0000453022283F84D20012283F84C2093F808
:1040C0002630023BDBB2934209D93C2303FB045365
:1040D00093F84C2021462846FFF762F860E6A9795C
:1040E00041B93C2303FB045393F83D2082F00102C5
:1040F00083F83D200129E8D13C2303FB04535B6B8B
:10410000002BE2D03C2202FB0452128D1344013BEF
:10411000B3FBF2F313F0010FD7D03C2303FB04539E
:1041200093F83D2082F0010283F83D20CDE73C2347
:1041300003FB0453022283F84D20DB7E012BC4D104
:104140003C2303FB045383F84C20BEE73C2303FBD2
:104150000453022183F84D1083F84C10DB7E012BB1
:10416000B3D13C2303FB04530021D976536823F4D5
:1041700080335360A9E73C2303FB0453022283F8F6
:104180004D2083F84C20A0E73C2303FB045302227C
:1041900083F84D20052283F84C2096E73C2303FB4F
:1041A0000453022283F84D205A6C01325A64022AC9
:1041B00008D93C2303FB045300225A64042283F8E9
:1041C0004C2082E73C2303FB0453022283F84C205B
:1041D000D6F8003523F0804343F00043C6F800359D
:1041E00073E700BFF8B504460568284600F0ADFA4D
:1041F000012800D0F8BD206800F09AFA0028F9D014
:10420000206800F095FA10F4001F03D023684FF4E3
:1042100000125A61206800F08BFA10F4801F03D05E
:1042200023684FF480125A61206800F081FA10F080
:10423000806F03D023684FF080625A61206800F0DD
:1042400077FA10F0020F02D0236802225A61206828
:1042500000F06EFA10F0005F08D023684FF00052B3
:104260005A61D5F8403413F0010F25D0206800F0D2
:104270005FFA10F0807F32D1206800F059FA10F018
:10428000080F30D1206800F053FA10F0007F31D1D0
:10429000206800F04DFA10F0100FABD0226893693F
:1042A00023F0100393612046FFF78EF8226893698C
:1042B00043F0100393619DE71021284600F0B6F902
:1042C000284600F0D8F9637A022B03D02046FEF787
:1042D00061FFCBE70121206800F0E4FAF6E7204611
:1042E000FFF705FAC8E72046FEF748FF23680822D3
:1042F0005A61C7E7206800F0C5FB0746002604E0C6
:10430000F1B22046FFF732FD01366379B34212D98C
:1043100006F00F0327FA03F313F0010FF4D005EBB7
:104320004613D3F8003513F4004FE9D0F1B220461C
:10433000FFF736FAE8E723684FF000725A61A7E703
:1043400090F8D433012B0ED010B50446012180F82B
:10435000D413006800F0C7FA206800F05BF9002071
:1043600084F8D40310BD0220704790F8D433012B99
:104370000BD010B50446012380F8D433006800F058
:1043800071FD002084F8D40310BD02207047C1EBFA
:10439000011100EB810090F84C007047C1EB011156
:1043A00000EB8100806B704708B5006800F0C9FA27
:1043B00008BDC1EB011200EB820200209076D0769E
:1043C00082F8250082F8240070472DE9F04F85B06F
:1043D0001F469DF838A09DF83C90BDF840B090F87D
:1043E000D433012B54D005460C461646D84601233B
:1043F00080F8D433C1EB011300EB830300225A761B
:104400001F75597583F8269006F07F029A75FFF79D
:10441000D0FF16F0800F29D1C4EB041305EB830302
:104420000022DA75286800F081FAB9F1010F24D072
:10443000C4EB041305EB830383F818A01FFA88F379
:10444000C4EB041205EB820213850293CDF80490AD
:10445000CDF800A03B4632462146286800F076FAA7
:10446000002385F8D43305B0BDE8F08FC4EB041306
:1044700005EB83030122DA75D4E7BAF1010F08BF17
:104480000028D5D1BBF1BC0FD2D94FF0BC08CFE783
:104490000220E8E782B000230193019B01330193DE
:1044A000019BB3F1706F15D80369002BF5DA002377
:1044B0000193036943F001030361019B01330193FD
:1044C000019BB3F1706F08D8036913F0010FF4D1A9
:1044D000002000E0032002B070470320FBE700004B
:1044E00000B583B000230193124A936943F004039B
:1044F0009361104B9B6913F0020F08D1019B0133AC
:104500000193019BB3F1706FF3D903200FE0094BC6
:104510000A221A60D96840F613720A43DA601A68F0
:1045200042F001021A60022001F054FD002003B0A5
:104530005DF804FB007C014084B010B5044603A87C
:1045400080E80E009DF81130012B14D0032B2FD0E2
:10455000E36843F04003E3602046FFF79BFFA36B53
:1045600043F48033A3639DF80E30012B45D0BDE8A2
:10457000104004B07047A36B23F48033A363E26858
:10458000234B1340E360E36843F01003E360E36808
:1045900023F44013E3609DF81830012B03D020462C
:1045A000FFF778FFDFE7E36843F48013E360F6E7A3
:1045B000A36B23F48033A363E268154B1340E360DD
:1045C000E36823F44013E360E36823F01003E3603F
:1045D000A36B43F40003A3632046FFF781FFA8B950
:1045E0009DF81830012B03D02046FFF753FFBAE7A0
:1045F000E36843F48013E360F6E7A36843F006033F
:10460000A360A36843F02003A360B0E70120AEE7F6
:10461000BFFFBDFF836843F0010383600020704744
:10462000836823F0010383600020704782B0002379
:104630000193019B01330193019BB3F1706F15D876
:104640000369002BF5DA00230193890141F0200171
:104650000161019B01330193019BB3F1706F08D895
:10466000036913F0200FF4D1002000E0032002B012
:1046700070470320FBE782B000230193019B0133C5
:104680000193019BB3F1706F13D80369002BF5DA26
:104690000023019310230361019B01330193019BCC
:1046A000B3F1706F08D8036913F0100FF4D1002034
:1046B00000E0032002B070470320FBE710B59DF82F
:1046C000084084B903334FEA930E4FF0000C08E022
:1046D00000EB023303F5805351F8044B1C600CF1DE
:1046E000010CF445F4D3002010BD10B584460846F3
:1046F0004FEA920E02F00302002305E00CF5805110
:10470000096840F8041B01337345F7D37AB10CF5FF
:10471000805CDCF800400021CBB2DB0024FA03F31C
:1047200000F8013B0131013A92B2002AF4D110BDE8
:10473000426980691040704700EB411000F5A063AA
:10474000D0F80805DB6818407047406900F00100A8
:10475000704738B50546C36823F0C043C3600129DC
:1047600013D019BBC36843F08043C36000240A2000
:1047700001F030FC0A342846FFF7E7FF08B1C72CE8
:10478000F5D9C82C14D0002038BDC36843F00053BD
:10479000C36000240A2001F01DFC0A342846FFF7FC
:1047A000D4FF0128EDD0C72CF4D9EAE70120EBE7CC
:1047B0000120E9E784B038B5044605A880E80E007A
:1047C0000023C4F8003EA36B23F40013A363E36843
:1047D00013F0400F11D19DF81730012B06D0D4F8FB
:1047E000003423F00403C4F800340CE0D4F800349F
:1047F00043F00403C4F8003405E0D4F8003423F097
:104800000403C4F8003410212046FFF70FFF0546CB
:1048100000B101252046FFF72EFF00B1012500223F
:1048200009E004EB42134FF0FF31C3F808150021F3
:10483000C3F80C1501329DF815309342F1D80023CE
:10484000A3614FF0FF336361124B9C4217D080236A
:10485000636203F5C003A3620F4BC4F800319DF8F7
:1048600016301BB9A36943F01003A361A2690B4B77
:104870001343A3612846BDE8384004B070474FF4A5
:104880000073636203F18073A362054BC4F80031C7
:10489000E5E700BF00000440E0004000080020A35E
:1048A0000003E00000F5806CD0F8003423F003032F
:1048B000C0F80034D0F8003401F003021343C0F80C
:1048C0000034012907D002290BD141F27073CCF8D2
:1048D0000430002070474BF68033CCF804300020C1
:1048E00070470120704782B000230193D0F8403414
:1048F0000193019B23F02E030193019B13F4805F2E
:1049000001D101290CD0019B13F4805F05D021B99E
:10491000019B23F48053C0F84034002002B070475C
:10492000019B43F48053C0F84034ECE782B000238D
:104930000193D0F8403401930198C0F3414002B094
:10494000704700F58060806880B270472DE9F843B9
:1049500091461C469DF8245000EB411606F5A063D5
:104960004FF0FF329A60032D00F28380DFE805F0FC
:104970000273021940F29D42DA6019F0800F04D1EF
:104980003F4A904207D0002712E0DA6842F4807272
:10499000DA6000270CE0DA6842F06002DA60002793
:1049A00006E040F29D62DA6019F0800F4DD10027D9
:1049B00000225A60DA6842F00202DA60D0F8183455
:1049C00001F00F0101228A401343C0F818348369B3
:1049D00043F00073836119F0800F4CD14FF0000851
:1049E000FFF7A4FF9DF82030022B14BF0023012302
:1049F000022808BF0023002B40D04FF40032A3054B
:104A000003F0FE534FEAC92909F4F04943EA0903C8
:104A1000A90401F440210B43BDF82810C1F30A0199
:104A20000B4343EA0803134343F48013C6F80035ED
:104A3000012D18BF032D05D1D6F8003543F00053E2
:104A4000C6F800353846BDE8F883DA6842F480726B
:104A5000DA600027ACE740F22522DA6019F0800F17
:104A600001D10027A4E7DA6842F4C072DA600027B7
:104A70009EE701279CE74FF40048B1E70022BEE71C
:104A80000000044000F58060406980B2704770B457
:104A900083B00023019300EB411101F5A062D1F82E
:104AA0000035C3F38143D1F800555468866816F089
:104AB000200F07D0ED0FE40F24B9CDB3032B18BF9F
:104AC000012B35D0022B18BF002B35D1D1F8003582
:104AD00043F08043C1F80035836813F0200F21D1E3
:104AE000C36A13F47F0F16D1D1F8003523F00043C9
:104AF000C1F80035D1F8003543F00043C1F8003566
:104B0000019B01330193019BB3F57A7F10D81368A1
:104B1000002BF5DB0CE0D1F8003543F00043C1F881
:104B2000003505E0D1F8003543F00043C1F8003509
:104B3000002003B070BC7047D1F8003543F08043CB
:104B4000C1F80035D0F8103413F47F0F16D1D1F826
:104B5000003523F00043C1F80035D1F8003543F0AB
:104B60000043C1F80035019B01330193019BB3F56C
:104B70007A7FDDD81368002BF5DBD9E7D1F8003553
:104B800043F00043C1F80035D2E7000000EB4110CC
:104B9000064AC0F81025D0F8003523F0804343F0D2
:104BA0000043C0F800350020704700BF00000880B7
:104BB00070B584B04B78A34CA04216D08C79012CF0
:104BC0002ED00D6A002D5FD0B1F814C005EB0C0497
:104BD000013CB4FBFCF4A4B2B4F5807F55D94FEA94
:104BE0000C24CC614FF480744FE0012A07D08C88EC
:104BF000B4F5807FE2D11946FFF7C8FF1FE18C7C36
:104C0000022C18BF002CD9D18C79002CD6D100EB06
:104C10004314D4F80C5525F07005C4F80C55CDE7B5
:104C2000CC781CB18C8ACC61012435E08C7C012CC1
:104C300005D0012A21D00C6ACC6101242CE00C6A39
:104C4000BC2C0DD98C8ACC610C62CC68013C012C47
:104C500002D90124CC601FE00224CC6001241BE0B7
:104C6000CC61CC68013C012C03D90424CC60012424
:104C700012E00324CC6001240EE00D6A8C8AA54268
:104C8000D9D9CC61012407E00124CE78002E60D070
:104C90008D8A04FB05F5CD61CD69C5F3120C6A4D13
:104CA00005EAC4444CEA040C8C7D640704F0C0445B
:104CB00000EB431303F5A06E4CEA0404CEF8104059
:104CC00012B18C69CEF8144000F58065AC6814F020
:104CD000010F0CBF4FF0010C4FF0000CD3F8004552
:104CE00024F00054C3F80045D3F8004544EA4C745E
:104CF000C3F800458C79012C2DD00024CEF8044057
:104D0000D3F800450394039C24F080440394CC78AA
:104D1000002C7DD0039C44F400440394039C44F095
:104D200000440394039CC3F80045002A40F08780A8
:104D3000CB78002B40F083800B6A002B7FD0CA79A0
:104D4000002A7CD18A7C032A72D8DFE802F0667FD1
:104D5000667FCD61A0E74E7C0C7C44EAC61444F02B
:104D60000044CEF80440DEF80C4044F06004CEF875
:104D70000C40CC79012C15D08C7C032C18BF012C55
:104D800002D1CC79012C1DD08C7C012CB8D1CC78EF
:104D9000002CB5D1CC68013C032CB1D8DFE804F07D
:104DA0001C232A31CC78002CE6D1DEF8044044F4F0
:104DB0008034CEF80440DEF80C4044F04004CEF8D5
:104DC0000C40D9E7CC78012CDED1DEF8044044F465
:104DD0008034CEF80440D7E7DEF8044044F40044C1
:104DE000CEF804408CE7DEF8044044F00E04CEF820
:104DF000044085E7DEF8044044F48044CEF80440E3
:104E00007EE7DEF8044044F44044CEF8044077E7FF
:104E1000039C24F40044039480E70333C26A92B2F3
:104E2000C3F38F03934203D9836943F02003836163
:104E3000002300930B8C4A788969FFF73FFC002020
:104E400004B070BD000004400000F81F03332A695D
:104E500092B2C3F38F039A42EAD2836943F080632C
:104E60008361E5E730B583B0044600230193FFF783
:104E7000D7FB10212046FFF7D9FB054600B10125DD
:104E80002046FFF7F8FB00B1012500220AE004EB01
:104E90004211D1F8003523F0802343F08043C1F85C
:104EA000003501320F2AF2D9002100E001310F292B
:104EB00016D804EB411000F5A062D0F8003523F4B9
:104EC000004343F04043C0F80035019B0133019398
:104ED000019BB3F57A7FE9D81368002BF5DBE5E792
:104EE0004FF0FF33C4F8143463612046FFF792FBA0
:104EF000284603B030BD0000002800F0FF8170B5E7
:104F000082B00446036813F0010F29D0954B9B68CB
:104F100003F00C03042B1AD0924B9B6803F00C0394
:104F2000082B0FD06368B3F5803F40D0002B54D1DD
:104F30008C4B1A6822F480321A601A6822F480229C
:104F40001A6039E0874B5B6813F4800FEAD0854B19
:104F50001B6813F4003F03D06368002B00F0D0817E
:104F6000236813F0020F74D07E4B9B6813F00C0F74
:104F70005ED07C4B9B6803F00C03082B53D0E36896
:104F8000002B00F08980774A136843F00103136017
:104F900001F01AF80546734B1B6813F0020F72D12B
:104FA00001F012F8401B0228F5D90320ADE16D4A4B
:104FB000136843F48033136063682BB301F004F883
:104FC0000546684B1B6813F4003FC9D100F0FCFF95
:104FD000401B6428F5D9032097E1B3F5A02F09D031
:104FE000604B1A6822F480321A601A6822F4802218
:104FF0001A60E1E75B4B1A6842F480221A601A6873
:1050000042F480321A60D7E700F0DEFF0546554BC8
:105010001B6813F4003FA3D000F0D6FF401B6428A8
:10502000F5D9032071E14F4B5B6813F4800FA6D1D3
:105030004C4B1B6813F0020F03D0E368012B40F0C8
:105040006181484A136823F0F803216943EAC103E8
:105050001360236813F0080F46D0636983B3414A95
:10506000536F43F00103536700F0AEFF05463D4B1D
:105070005B6F13F0020F37D100F0A6FF401B022830
:10508000F5D9032041E1374A136823F0F803216979
:1050900043EAC1031360DCE7324A136823F00103DB
:1050A000136000F091FF05462E4B1B6813F0020FB2
:1050B000CFD000F089FF401B0228F5D9032024E15E
:1050C000284A536F23F00103536700F07DFF054624
:1050D000244B5B6F13F0020F06D000F075FF401BEE
:1050E0000228F5D9032010E1236813F0040F7DD0C6
:1050F0001C4B1B6C13F0805F1ED11A4B1A6C42F0D4
:1051000080521A641B6C03F080530193019B0125AC
:10511000154B1B6813F4807F10D0A368012B25D09A
:10512000002B3BD10F4B1A6F22F001021A671A6F46
:1051300022F004021A671EE00025E9E70A4A136814
:1051400043F48073136000F03FFF0646064B1B6874
:1051500013F4807FE1D100F037FF801B6428F5D97C
:105160000320D2E000380240007000406E4A136F06
:1051700043F001031367A36833B300F025FF06462D
:10518000694B1B6F13F0020F2FD100F01DFF801B26
:1051900041F288339842F3D90320B6E0052B09D0B9
:1051A000614B1A6F22F001021A671A6F22F0040293
:1051B0001A67E0E75C4B1A6F42F004021A671A6F35
:1051C00042F001021A67D6E700F0FEFE0646564B93
:1051D0001B6F13F0020F08D000F0F6FE801B41F2A7
:1051E00088339842F3D903208FE0FDB9A369002BDF
:1051F00000F08A804C4A926802F00C02082A58D0CB
:10520000022B19D0484A136823F08073136000F012
:10521000DBFE0446444B1B6813F0007F47D000F0D0
:10522000D3FE001B0228F5D903206EE03E4A136C22
:1052300023F080531364D9E73B4A136823F080734B
:10524000136000F0C1FE0546374B1B6813F0007F6A
:1052500006D000F0B9FE401B0228F5D9032054E027
:10526000E369226A1343626A43EA8213A26A52081C
:10527000013A43EA0243E26A43EA026343F000531D
:10528000294A5360136843F08073136000F09CFE5A
:105290000446254B1B6813F0007F06D100F094FEF6
:1052A000001B0228F5D903202FE000202DE000206C
:1052B0002BE01D4A5268012B29D002F48003E169DA
:1052C0008B4226D102F03F03216A8B4223D1616ACF
:1052D00047F6C0731340B3EB811F1ED102F4403177
:1052E000A36A5B08013BB1EB034F18D102F0706277
:1052F000E36AB2EB036F14D1002006E0012070478F
:10530000012002E0012000E0002002B070BD012079
:10531000FBE70120F9E70120F7E70120F5E701208D
:10532000F3E70120F1E700BF0038024008B5264B43
:105330009B6803F00C03042B41D0082B41D1224B76
:105340005A6802F03F025B6813F4800F12D01E4BC4
:105350005968C1F388111D480023A1FB0001FBF728
:10536000BBFC194B5B68C3F3014301335B00B0FB2B
:10537000F3F027E0144B5868C0F388104FEA401C44
:10538000BCEB000C6EEB0E0E4FEA8E1343EA9C63EF
:105390004FEA8C11B1EB0C0163EB0E03DB0043EA27
:1053A0005173C90011EB000C43F100039902002373
:1053B0004FEA8C2041EA9C51FBF78EFCD1E7034871
:1053C00000E0034808BD00BF0038024040787D017E
:1053D0000024F400002800F0A08070B50D460446BB
:1053E000524B1B6803F00F038B420BD24F4A1368DA
:1053F00023F00F030B431360136803F00F038B427A
:1054000040F08D80236813F0020F17D013F0040FC3
:1054100004D0474A936843F4E0539360236813F041
:10542000080F04D0424A936843F460439360404AB3
:10543000936823F0F003A1680B439360236813F093
:10544000010F31D06368012B20D0022B25D0384AC0
:10545000126812F0020F64D035498A6822F0030204
:1054600013438B6000F0B0FD0646314B9B6803F0A0
:105470000C036268B3EB820F16D000F0A5FD801B11
:1054800041F288339842F0D9032045E0284A126857
:1054900012F4003FE0D101203EE0254A126812F0EC
:1054A000007FD9D1012037E0204B1B6803F00F03A8
:1054B000AB420AD91D4A136823F00F032B43136034
:1054C000136803F00F03AB422DD1236813F0040FD0
:1054D00006D0174A936823F4E053E1680B439360C6
:1054E000236813F0080F07D0114A936823F4604330
:1054F000216943EAC1039360FFF718FF0C4B9B68D7
:10550000C3F303130B4AD35CD8400B4B18600B4B0F
:105510001868FDF7CFFC002070BD01207047012006
:10552000FAE70120F8E70120F6E700BF003C02405F
:10553000003802409CFE0008C0010020BC01002091
:10554000014B1868704700BFC001002008B5FFF785
:10555000F7FF044B9B68C3F38223034AD35CD84014
:1055600008BD00BF0038024094FE000808B5FFF7F0
:10557000E7FF044B9B68C3F34233034AD35CD84034
:1055800008BD00BF0038024094FE00080F230360EE
:105590000B4B9A6802F0030242609A6802F0F00234
:1055A00082609A6802F4E052C2609B68DB0803F4F0
:1055B000E0530361034B1B6803F00F030B6070475C
:1055C00000380240003C0240F0B583B00446066853
:1055D00016F001060DD0AB4B9A6822F400029A60D7
:1055E0009A68C16A0A439A60C36A002B00F023815B
:1055F0000026256815F4002511D0A24AD2F88C3077
:1056000023F44013616B0B43C2F88C30636BB3F52A
:10561000801F00F01281002B00F01181002523680B
:1056200013F4801F0FD0974AD2F88C3023F4400334
:10563000A16B0B43C2F88C30A36BB3F5800F00F065
:10564000008103B90125236813F0200F40F0FB808F
:10565000236813F0100F0CD08A4BD3F88C2022F063
:105660008072C3F88C20D3F88C20216B0A43C3F8D6
:105670008C20236813F4804F08D0824AD2F89030EF
:1056800023F44033E16D0B43C2F89030236813F4E8
:10569000004F08D07B4AD2F8903023F44023216E8B
:1056A0000B43C2F89030236813F4803F08D0754A4A
:1056B000D2F8903023F44013616E0B43C2F890305F
:1056C000236813F0400F08D06E4AD2F8903023F0D0
:1056D0000303E16B0B43C2F89030236813F0800F93
:1056E00008D0684AD2F8903023F00C03216C0B43A9
:1056F000C2F89030236813F4807F08D0614AD2F852
:10570000903023F03003616C0B43C2F89030236873
:1057100013F4007F08D05B4AD2F8903023F0C00326
:10572000A16C0B43C2F89030236813F4806F08D04B
:10573000544AD2F8903023F44073E16C0B43C2F822
:105740009030236813F4006F08D04E4AD2F890309E
:1057500023F44063216D0B43C2F89030236813F4A7
:10576000805F08D0474AD2F8903023F44053616DEF
:105770000B43C2F89030236813F4005F08D0414A0D
:10578000D2F8903023F44043A16D0B43C2F890301F
:10579000236813F4001F0DD03A4AD2F8903023F05A
:1057A0000063616F0B43C2F89030636FB3F1006F19
:1057B00000F0B480236813F4802F08D0314AD2F867
:1057C000903023F04073E16E0B43C2F890302368B1
:1057D00013F4000F08D02B4AD2F8903023F08053F6
:1057E000A16F0B43C2F89030236813F0806F08D08C
:1057F000244AD2F8903023F00053E16F0B43C2F8F3
:10580000903026B9236813F0007F00F0E4801D4A31
:10581000136823F08063136000F0D6FB0646194B33
:105820001B6813F0006F7BD000F0CEFB801B642858
:10583000F5D90320D2E00126DBE60126EBE60125BF
:10584000EDE60126FDE60F4B1A6C42F080521A6419
:105850001B6C03F080530193019B0B4A136843F4C4
:105860008073136000F0B0FB0746074B1B6813F40E
:10587000807F0BD100F0A8FBC01B6428F5D9032062
:10588000ACE000BF0038024000700040854B1B6F49
:1058900013F4407315D0A26A02F440729A4210D0F9
:1058A000804B1A6F22F44072196F41F480311967EE
:1058B000196F21F4803119671A671B6F13F0010FFC
:1058C00012D1A36A03F44072B2F5407F1DD0754A2D
:1058D000936823F4F813936072490B6FA26AC2F3C2
:1058E0000B0213430B67B3E600F06EFB07466D4BEC
:1058F0001B6F13F0020FE4D100F066FBC01B41F2F6
:1059000088339842F3D9032068E06648826822F41D
:10591000F812654919400A438260DDE7012549E72D
:10592000236813F0010F0ED0E36A63B95D4AD2F821
:105930008430616803F0706343EA8113A16843EA2D
:105940000173C2F88430236813F4002F03D0626B14
:10595000B2F5801F06D013F4801F19D0A36BB3F5E6
:10596000800F15D14F4AD2F884106068E3681B0697
:1059700043EA801301F0E0410B43C2F88430D2F8CF
:105980008C3023F01F03E16901390B43C2F88C30DE
:10599000236813F0007F0AD06268E3681B0643EABD
:1059A0008213A26843EA02733E4AC2F884303D4A39
:1059B000136843F08063136000F006FB0646394B22
:1059C0001B6813F0006F06D100F0FEFA801B6428FC
:1059D000F5D9032002E0012D02D0002003B0F0BD74
:1059E000304A136823F08053136000F0EDFA054647
:1059F0002C4B1B6813F0005F06D000F0E5FA401B4B
:105A00006428F5D90320E9E7236813F4002F01D0B7
:105A1000626B22B113F4801F18D0A36BB3B9214A73
:105A2000D2F88830216903F4403343EA8113616975
:105A300043EA0163C2F88830D2F88C3023F4F8537B
:105A4000216A013943EA0123C2F88C30236813F438
:105A5000001F03D0636FB3F1006F13D0114A1368B6
:105A600043F08053136000F0AFFA04460D4B1B68FF
:105A700013F0005F14D100F0A7FA001B6428F5D9D9
:105A80000320ABE70749D1F888202069A3691B04EC
:105A900043EA801302F070621343C1F88830DDE7F7
:105AA00000209BE700380240FFFCFF0F0246B0F5E4
:105AB000002F04D00020B2F5801F62D07047614BE8
:105AC000D3F88C3003F44013B3F5801F2ED0B3F518
:105AD000001F54D00BB10020EDE75A4B5B6813F464
